S01000004669726D776172652E73726563D7
S11300000C945C000C947D000C947D000C947D0099
S11300100C947D000C947D000C947D000C947D0068
S11300200C94E1030C94A8030C947D000C94360406
S11300300C947D000C947D000C941C040C947D00A5
S11300400C947D000C947D000C947D000C947D0038
S11300500C947D000A4D6573736167652069732094
S1130060746F6F206C6F6E670A000A5472616E734E
S11300706D697373696F6E206572726F720A000A1C
S1130080546F6F206D616E79207374726179206989
S11300906E74657272757074732E204D657373611E
S11300A06765206973206E6F7420726561640A004D
S11300B05350494E5537300011241FBECFE5D4E0CC
S11300C0DEBFCDBF84B78093B90014BE10E0A0E6B4
S11300D0B0E0E8E5F4E102C005900D92A639B1075D
S11300E0D9F710E0A6E9B0E001C01D92A93BB10721
S11300F0E1F70E943A090C942A0A0C940000482F54
S113010050E0CA018071907044FF0FC045FF0DC0DC
S113011022B34770507081E090E002C0880F991FAD
S11301204A95E2F7282B22BB089545FF0DC025B35D
S11301304770507081E090E002C0880F991F4A9583
S1130140E2F7282B25BB089547705070892B59F08E
S113015028B381E090E002C0880F991F4A95E2F726
S1130160282B28BB08952BB381E090E002C0880FB0
S1130170991F4A95E2F7282B2BBB0895482F50E08E
S1130180CA018071907044FF10C045FF0EC022B3B5
S11301904770507081E090E002C0880F991F4A9523
S11301A0E2F78095822382BB089545FF0EC025B3F4
S11301B04770507081E090E002C0880F991F4A9503
S11301C0E2F78095822385BB089547705070892B90
S11301D061F028B381E090E002C0880F991F4A952E
S11301E0E2F78095822388BB08952BB381E090E0E9
S11301F002C0880F991F4A95E2F7809582238BBB32
S11302000895282F30E0C9018071907024FF04C044
S113021025FF02C080B309C025FF02C083B305C017
S1130220892B11F086B301C089B390E02770307038
S113023002C0959587952A95E2F780958170089577
S1130240CF93DF938091B1000E94BE008091B400EF
S11302500E940101882309F048C08091A3000E94F4
S11302607F00C0E9D1E028C080919D0090919E005C
S1130270A0919F00B091A0000097A105B105A1F441
S11302808091AD009091AE00A091AF00B091B0000C
S113029088599F4EAF4FBF4F80939D0090939E000F
S11302A0A0939F00B093A00088E893E1FE013197EA
S11302B0F1F70197D9F7A8958091B4000E94010144
S11302C0882391F28091B8008D7F8093B80080914B
S11302D0B8008E7F8093B8008091B8008B7F8093A4
S11302E0B8008091A3000E94BE00DF91CF910895D1
S11302F08091AC000E94BE008091A7000E947F0004
S113030088E893E120E931E0F9013197F1F70197A9
S1130310D9F78091A7000E94BE00A8958091B400EF
S11303200E9401018823C1F48091A7000E94BE00AD
S11303308091AC000E947F0088E893E120E931E0DD
S1130340F9013197F1F70197D9F78091AC000E9438
S1130350BE00A8950E94200108950F931F93CF9388
S1130360DF938091B5000E94010180939A008091EF
S11303709D0090919E00A0919F00B091A0008F5F7E
S11303809F4FAF4FBF4F41F410929D0010929E00BB
S113039010929F001092A00080919B000E94010186
S11303A0882351F180919A008093B7008091A8002E
S11303B09091A9009093A5008093A4008091A1003E
S11303C00E940101182F8091B3000E940101880F3F
S11303D0810F8093B600833018F481508093B2006B
S11303E081E080939C008091B1000E94BE008091C6
S11303F0A3000E94BE006EC180919C008823E1F09E
S11304000E94780110929C008091B5000E94010125
S113041080939A008091A1000E940101182F80917D
S1130420B3000E940101880F810F8093B6008330CE
S113043018F481508093B20090919A008091B70093
S1130440981709F472C00E9420018091B700882394
S1130450B9F48091AC000E94BE008091A7000E9474
S11304607F0088E893E120E931E0F9013197F1F761
S11304700197D9F78091A7000E94BE00A89516C0E5
S11304808091A7000E94BE008091AC000E947F0072
S113049088E893E120E931E0F9013197F1F7019718
S11304A0D9F78091AC000E94BE00A895C0E0D0E0CE
S11304B000E911E08091B5000E94010180939A0047
S11304C09091B700891769F0C330D10509F4ACC025
S11304D088E893E1F8013197F1F70197D9F721966C
S11304E0E9CF20E030E0339A369A07C085B78064BC
S11304F085BF889585B78F7B85BF8091B80081FFC4
S1130500F5CF8091B8008D7F8093B8008091B800BA
S11305108E7F8093B8008091B8008B7F8093B80061
S11305202F5F3F4F23303105F1F68091A6008823D9
S113053009F46AC02091A4003091A500243031054B
S113054098F48091B4000E940101882349F58091B8
S1130550A8009091A900059718F18091B1000E941C
S1130560BE008091A30015C08091A8009091A900BD
S1130570245030408217930778F48091A2000E949F
S11305800101882349F48091A3000E94BE00809158
S1130590B1000E947F0004C08091B1000E94BE009F
S11305A02091A8003091A9008091A4009091A50009
S11305B004968217930798F48091B4000E94010175
S11305C0882349F48091B1000E94BE008091A30069
S11305D00E947F0004C08091A3000E94BE0020916D
S11305E0A8003091A9008091A4009091A50028173B
S11305F0390751F48091B1000E94BE008091A3009C
S11306000E94BE001092A6008091A1000E940101E8
S1130610182F8091B3000E940101282F220F210F6F
S11306202093B600233010F180919D0090919E009C
S1130630A0919F00B091A0000097A105B10509F019
S113064051C08091AD009091AE00A091AF00B091E7
S1130650B00080539F4DAF4FBF4F80939D00909348
S11306609E00A0939F00B093A0003CC04091B200B4
S113067030E0842F90E001962817390759F144237C
S113068099F48091AA000E94BE008091A1000E946A
S11306900101882329F0809199000E94BE0004C0C2
S11306A0809199000E947F008091B2008130D1F442
S11306B0809199000E94BE008091B3000E940101C4
S11306C0882319F08091AA000BC08091AA000E948F
S11306D07F0008C08091AA000E94BE00809199000A
S11306E00E94BE00DF91CF911F910F910895982F22
S11306F09F70A6E8B0E0FD01E90FF11D9081909391
S11307009700E7E9F0E082958F70A80FB11D8C91F6
S1130710829310929800CF010895FC018081813664
S11307201CF0282F205502C0282F20532A3008F00F
S113073027508181813614F0805501C080538A305E
S113074008F087502295207F282B822F805308950C
S11307501F920F920FB60F9211242F938F939F9392
S1130760AF93BF93809184009091850001979093FB
S1130770850080938400892BD1F48AE090E09093E3
S113078085008093840080919D0090919E00A091AB
S11307909F00B091A0000197A109B1098E5F9F4FFE
S11307A0AF4FBF4F20F485B390E2892785BBBF913B
S11307B0AF919F918F912F910F900FBE0F901F902B
S11307C018951F920F920FB60F9211248F939F9337
S11307D0AF93BF938091820090918300019790938F
S11307E0830080938200892B59F486E490E09093EF
S11307F08300809382008091B80081608093B80068
S11308008091AD009091AE00A091AF00B091B00086
S11308100196A11DB11D8093AD009093AE00A093ED
S1130820AF00B093B000BF91AF919F918F910F90A3
S11308300FBE0F901F9018951F920F920FB60F9234
S113084011248F939F9384B195B19093A9008093C1
S1130850A80033988091B80082608093B8009F917B
S11308608F910F900FBE0F901F9018951F920F92AB
S11308700FB60F9211248F938CB15C9907C08093AB
S1130880AB008091B80084608093B8008F910F9082
S11308900FBE0F901F9018955D9BFECF8CB90895E5
S11308A0FC0106C080815D9BFECF31968CB96150FE
S11308B06623C1F70895FC019DE009C08A3019F44C
S11308C05D9BFECF9CB95D9BFECF31968CB9808138
S11308D08823A1F70895FC0184919DE00AC08A3021
S11308E019F45D9BFECF9CB95D9BFECF8CB931960C
S11308F084918823A1F708951F9310929D0010926C
S11309009E0010929F001092A0001092A5001092D9
S1130910A4001092B2001092A60011E010939C0063
S11309201092AD001092AE001092AF001092B00081
S11309301092AB008BB78F718BBF93E09FBD1EBD30
S113094022E023BF80E881BB30E234BB88E98AB966
S113095010BC80E189B9599A97B980B7806A80BF81
S113096087E886B98AE18093B100BA9A8BE18093D3
S1130970A300BB9A88E18093AA00B89A89E1809386
S11309809900B99A82E38093B3001092A100109366
S1130990A2002093B4008EE28093A700A69A8FE26F
S11309A08093AC00A79A3093B50081E280939B00BA
S11309B08AE10E94BE008091A3000E94BE00809143
S11309C0AA000E94BE00809199000E94BE008091FE
S11309D0A7000E94BE008091AC000E94BE0084E08B
S11309E089BF89B7816089BF80919B000E94010102
S11309F0882309F510929C008091B5000E940101A2
S1130A0080939A001092B700882311F41093B700D2
S1130A101092A5001092A4008091A1000E940101EF
S1130A20182F8091B3000E9401011150880F810F8B
S1130A308093B20002C010939C008091B8008D7F17
S1130A408093B8008091B8008E7F8093B800809125
S1130A50B8008B7F8093B80078942FE088E190E011
S1130A600FB6F894A89581BD0FBE21BD1F910895BE
S1130A700F931F93CF93DF938C01EB016FEF7FEF05
S1130A80A0E0B0E038C0A89585B7806485BF88959C
S1130A9085B78F7B85BF8091B80082FF38C0809175
S1130AA0B8008B7F8093B8004091AB004A30A9F125
S1130AB0842F80538A3008F58FEF6F3F780711F445
S1130AC060E070E0FB01EE0FFF1FE00FF11F50E04C
S1130AD040535040808191819C01220F331F220F8B
S1130AE0331F220F331F880F991F280F391F420FFE
S1130AF0531F5183408390E00AC0992341F46F5FF0
S1130B007F4F888199816817790739F091E01196B0
S1130B1083E0A83EB80709F0B6CFFB0177FF02C017
S1130B20E0E0F0E0F983E88328EE33E02A1B3B0B96
S1130B30C901DF91CF911F910F910895CF92DF9258
S1130B40EF92FF920F931F93CF93DF93EC016A010F
S1130B50198218827FEF91E0A0E0B0E0E22EFF243A
S1130B60062F10E03DC0F601EA0FFB1F4081842FE1
S1130B7083508230C8F18D528A3000F57F3F09F4EA
S1130B8070E0E72FFF27E7FDF095EE0FFF1FEC0F56
S1130B90FD1F50E040535040808191819C0163E0EF
S1130BA0220F331F6A95E1F7880F991F280F391F09
S1130BB0420F531F5183408390E011C0992371F475
S1130BC07F5FE72FFF27E7FDF095E017F10761F05E
S1130BD0EE0FFF1FEC0FFD1F1182108291E01196A2
S1130BE0AE15BF050CF4BFCF872F8F5FDF91CF9178
S1130BF01F910F91FF90EF90DF90CF900895AC017B
S1130C0020E006C06150FA01E60FF11D808128271B
S1130C106623C1F7822F0895CF93DF93EC01DB01A4
S1130C2028EE33E018C0A89585B7806485BF889501
S1130C3085B78F7B85BF8091B80082FF0CC08091FF
S1130C40B8008B7F8093B8004091AB00442309F433
S1130C5080C050E03FC02150304029F77AC0A895A9
S1130C6085B7806485BF889585B78F7B85BF809164
S1130C70B80082FF2FC08091B8008B7F8093B800AA
S1130C808091AB00FE01E50FF11D80835F5F541777
S1130C9029F18C915817F1F45D9BFECF85E18CB955
S1130CA015C0A89585B7806485BF889585B78F7B67
S1130CB085BF8091B80082FF09C08091B8008B7F06
S1130CC08093B8005F5F541709F445C02150304049
S1130CD041F741C02150304009F0C1CF5C93211548
S1130CE03105C1F45D9BFECF1AC0A89585B7806419
S1130CF085BF889585B78F7B85BF8091B80082FFBB
S1130D0009C08091B8008B7F8093B8006091AB00DC
S1130D1040E00FC02150304041F75D9BFECF85E19C
S1130D208CB980E019C05150FE01E50FF11D80819E
S1130D3048275523C1F7641731F45D9BFECF86E045
S1130D408CB9822F09C05D9BFECF85E18CB98DEFF4
S1130D5003C08FEF01C08EEFDF91CF910895CF9341
S1130D60DF93DC01EB0140E050E060E020E09CC058
S1130D70A89585B7806485BF889585B78F7B85BF27
S1130D808091B80082FF90C08091B8008B7F8093DF
S1130D90B8002430E9F57091AB00262F30E006C08E
S1130DA02150FD01E20FF11D808138272223C1F774
S1130DB0731731F45D9BFECF86E08CB968837BC0EA
S1130DC080919D0090919E00A0919F00B091A00001
S1130DD00097A105B105A1F48091AD009091AE00FA
S1130DE0A091AF00B091B0008C5C974FAF4FBF4F54
S1130DF080939D0090939E00A0939F00B093A000C9
S1130E005D9BFECF85E18CB968832FEF3FEF83C0F4
S1130E102091AB00FD01E60FF11D20836F5F8881F7
S1130E20681709F041C080919D0090919E00A091A7
S1130E309F00B091A0000097A105B105A1F4809195
S1130E40AD009091AE00A091AF00B091B0008C5C69
S1130E50974FAF4FBF4F80939D0090939E00A093F8
S1130E609F00B093A0005D9BFECF85E18CB915C0B7
S1130E70A89585B7806485BF889585B78F7B85BF26
S1130E808091B80082FF09C08091B8008B7F809365
S1130E90B8008091AB008430E1F14F5F5F4F83E095
S1130EA0483E580728F335C04F5F5F4F83E0483E04
S1130EB0580709F05DCF688383E0483E580721F561
S1130EC080919D0090919E00A0919F00B091A00000
S1130ED00097A105B105A1F48091AD009091AE00F9
S1130EE0A091AF00B091B0008C5C974FAF4FBF4F53
S1130EF080939D0090939E00A0939F00B093A000C8
S1130F005D9BFECF85E18CB928EE33E0241B350BC5
S1130F1002C02EEF3FEFC901DF91CF910895CF9327
S1130F20DF93FC015D9BFECF81E08CB9309711F417
S1130F3090E00AC090E005C05D9BFECF98278CB975
S1130F40319680818823C1F722E029275D9BFECF5B
S1130F5082E08CB96115710559F1EB0190E021C073
S1130F60A881EA2FF0E0EF70F070EA57FF4F80811C
S1130F7080939700A295AF70B0E0AA57BF4F8C91B1
S1130F808093960010929800E6E9F0E005C05D9B1E
S1130F90FECF28278CB9319680818823C1F79F5FC3
S1130FA021969417E8F25D9BFECF83E028278CB945
S1130FB05D9BFECF84E08CB95D9BFECF84E0282747
S1130FC02CB9DF91CF910895EF92FF920F931F9365
S1130FD0DF93CF93CDB7DEB728970FB6F894DEBF73
S1130FE00FBECDBF7C01262FFC018081833509F41F
S1130FF07EC0843534F48F3341F0813509F02DC13E
S113100071C0833709F029C172C08091A1000E9488
S11310100101182F8091B3000E940101880F810FF4
S1131020F70180838091B5000E940101F70181835B
S11310308091A8009091A9009A8389838A818283F0
S1131040898183838091B1000E940101082F8091DE
S1131050A3000E94010113E0212F281B802F90E0A0
S1131060880F991F281BF7012483809199000E94FF
S11310700101082F8091AA000E940101212F281B41
S1131080802F90E0880F991F281BF70125838091FA
S1131090B4000E940101082F8091A2000E94010166
S11310A0880F800FF70186838091AC000E940101B4
S11310B0082F8091A7000E940101181B802F90E047
S11310C0880F991F181BF701178380919B000E94BA
S11310D00101F701808780E690E0B70149E00E94B2
S11310E08F07BBC080EB90E00E946B04B6C08E01FA
S11310F00D5F1F4F82E090E0E80EF91E2350C801F7
S113110063E0A7010E949E05882321F487E690E00E
S11311100E946B04F80180818093B20082818093E5
S1131120B700848195819093A5008093A400809159
S1131130A1000E940101182F8091B3000E940101B7
S1131140880F810F8093B6008091B5000E94010141
S1131150382F80939A002091B600233030F5809187
S1131160B200823010F180919D0090919E00A09178
S11311709F00B091A0000097A105B105A1F4809152
S1131180AD009091AE00A091AF00B091B0008C5C26
S1131190974FAF4FBF4F80939D0090939E00A093B5
S11311A09F00B093A0002093B2008091B7008230DA
S11311B010F180919D0090919E00A0919F00B091AC
S11311C0A0000097A105B105A1F48091AD00909114
S11311D0AE00A091AF00B091B0008C5C974FAF4FC0
S11311E0BF4F80939D0090939E00A0939F00B09367
S11311F0A0003093B7008091A4009091A500805086
S1131200944040F180919D0090919E00A0919F0098
S1131210B091A0000097A105B105A1F48091AD00A3
S11312209091AE00A091AF00B091B0008C5C974F4C
S1131230AF4FBF4F80939D0090939E00A0939F005B
S1131240B093A0008091A8009091A9009093A5006C
S11312508093A40081E08093A60028960FB6F894AA
S1131260DEBF0FBECDBFCF91DF911F910F91FF90D5
S1131270EF9008958F929F92AF92BF92CF92DF9298
S1131280EF92FF920F931F93DF93CF93CDB7DEB707
S113129065970FB6F894DEBF0FBECDBF0E947C04E5
S11312A0EE24EA94FE2C870174E1872E62E0C62EB8
S11312B0D12CCC0EDD1E5E010894A11CB11C55E19D
S11312C0952EA8958091B80080FF34C08091B80015
S11312D08E7F8093B80020919D0030919E004091B4
S11312E09F005091A0002115310541055105A9F039
S11312F08091AD009091AE00A091AF00B091B0008C
S1131300281739074A075B0740F4E0929D00F092E2
S11313109E0000939F001093A0008091A600882354
S113132011F4979803C082B3805882BB0E94AD0128
S1131330339A369A8091B80081FF05C08091B80035
S11313408D7F8093B8008091B80082FF7BC080912C
S1131350B8008B7F8093B8008091AB008983813083
S113136021F180919D0090919E00A0919F00B091E9
S1131370A0000097A105B105A1F48091AD00909162
S1131380AE00A091AF00B091B0008C5C974FAF4F0E
S1131390BF4F80939D0090939E00A0939F00B093B5
S11313A0A0005D9BFECF9CB88CCF8982C601B5019D
S11313B00E94AF06982F8091B8008B7F8093B8006D
S11313C08091B8008D7F8093B8008091B8008E7FA3
S11313D08093B8009F3F41F0992319F09E3F69F52F
S11313E006C08FE790E005C08AE690E002C084E57D
S11313F090E00E946B0480919D0090919E00A091CA
S11314009F00B091A0000097A105B10509F059CF44
S11314108091AD009091AE00A091AF00B091B0006A
S113142080539F4DAF4FBF4F80939D0090939E007C
S1131430A0939F00B093A00044CFC60169810E948D
S1131440E4073FCF85B7806485BF889585B78F7BD8
S10B145085BF37CFF894FFCFEC
S1131458535441545553004661696C656420746F54
S11314682072656164206E65772076616C7565739A
S11314780A00010001003031323334353637383947
S1091488414243444546C5
S9030000FC
